{
	"functions.sol": {
		"learnFunctions": {
			"abi": [
				{
					"inputs": [],
					"name": "addValues",
					"outputs": [
						{
							"internalType": "uint256",
							"name": "",
							"type": "uint256"
						}
					],
					"stateMutability": "view",
					"type": "function"
				},
				{
					"inputs": [
						{
							"internalType": "uint256",
							"name": "a",
							"type": "uint256"
						},
						{
							"internalType": "uint256",
							"name": "b",
							"type": "uint256"
						}
					],
					"name": "multiplyCalculator",
					"outputs": [
						{
							"internalType": "uint256",
							"name": "",
							"type": "uint256"
						}
					],
					"stateMutability": "view",
					"type": "function"
				},
				{
					"inputs": [
						{
							"internalType": "bool",
							"name": "closedDoor",
							"type": "bool"
						}
					],
					"name": "remoteControlOpen",
					"outputs": [
						{
							"internalType": "bool",
							"name": "",
							"type": "bool"
						}
					],
					"stateMutability": "nonpayable",
					"type": "function"
				}
			],
			"devdoc": {
				"kind": "dev",
				"methods": {},
				"version": 1
			},
			"evm": {
				"assembly": "    /* \"functions.sol\":37:481  contract learnFunctions {\r... */\n  mstore(0x40, 0x80)\n    /* \"functions.sol\":157:158  3 */\n  0x03\n    /* \"functions.sol\":148:158  uint c = 3 */\n  0x00\n  sstore\n    /* \"functions.sol\":37:481  contract learnFunctions {\r... */\n  callvalue\n  dup1\n  iszero\n  tag_1\n  jumpi\n  0x00\n  dup1\n  revert\ntag_1:\n  pop\n  dataSize(sub_0)\n  dup1\n  dataOffset(sub_0)\n  0x00\n  codecopy\n  0x00\n  return\nstop\n\nsub_0: assembly {\n        /* \"functions.sol\":37:481  contract learnFunctions {\r... */\n      mstore(0x40, 0x80)\n      callvalue\n      dup1\n      iszero\n      tag_1\n      jumpi\n      0x00\n      dup1\n      revert\n    tag_1:\n      pop\n      jumpi(tag_2, lt(calldatasize, 0x04))\n      shr(0xe0, calldataload(0x00))\n      dup1\n      0x166e7bdd\n      eq\n      tag_3\n      jumpi\n      dup1\n      0x273d1a3e\n      eq\n      tag_4\n      jumpi\n      dup1\n      0xde1126f6\n      eq\n      tag_5\n      jumpi\n    tag_2:\n      0x00\n      dup1\n      revert\n        /* \"functions.sol\":235:357  function addValues() public view returns(uint){\r... */\n    tag_3:\n      tag_6\n      tag_7\n      jump\t// in\n    tag_6:\n      mload(0x40)\n      tag_8\n      swap2\n      swap1\n      tag_9\n      jump\t// in\n    tag_8:\n      mload(0x40)\n      dup1\n      swap2\n      sub\n      swap1\n      return\n        /* \"functions.sol\":163:231  function remoteControlOpen(bool closedDoor) public returns(bool){\r... */\n    tag_4:\n      tag_10\n      0x04\n      dup1\n      calldatasize\n      sub\n      dup2\n      add\n      swap1\n      tag_11\n      swap2\n      swap1\n      tag_12\n      jump\t// in\n    tag_11:\n      tag_13\n      jump\t// in\n    tag_10:\n      mload(0x40)\n      tag_14\n      swap2\n      swap1\n      tag_15\n      jump\t// in\n    tag_14:\n      mload(0x40)\n      dup1\n      swap2\n      sub\n      swap1\n      return\n        /* \"functions.sol\":361:476  function multiplyCalculator(uint a, uint b) public view returns(uint){\r... */\n    tag_5:\n      tag_16\n      0x04\n      dup1\n      calldatasize\n      sub\n      dup2\n      add\n      swap1\n      tag_17\n      swap2\n      swap1\n      tag_18\n      jump\t// in\n    tag_17:\n      tag_19\n      jump\t// in\n    tag_16:\n      mload(0x40)\n      tag_20\n      swap2\n      swap1\n      tag_9\n      jump\t// in\n    tag_20:\n      mload(0x40)\n      dup1\n      swap2\n      sub\n      swap1\n      return\n        /* \"functions.sol\":235:357  function addValues() public view returns(uint){\r... */\n    tag_7:\n        /* \"functions.sol\":276:280  uint */\n      0x00\n        /* \"functions.sol\":286:292  uint a */\n      dup1\n        /* \"functions.sol\":295:296  2 */\n      0x02\n        /* \"functions.sol\":286:296  uint a = 2 */\n      swap1\n      pop\n        /* \"functions.sol\":299:305  uint b */\n      0x00\n        /* \"functions.sol\":308:309  3 */\n      0x03\n        /* \"functions.sol\":299:309  uint b = 3 */\n      swap1\n      pop\n        /* \"functions.sol\":312:323  uint result */\n      0x00\n        /* \"functions.sol\":334:335  c */\n      dup1\n      sload\n        /* \"functions.sol\":330:331  b */\n      dup3\n        /* \"functions.sol\":326:327  a */\n      dup5\n        /* \"functions.sol\":326:331  a + b */\n      tag_22\n      swap2\n      swap1\n      tag_23\n      jump\t// in\n    tag_22:\n        /* \"functions.sol\":326:335  a + b + c */\n      tag_24\n      swap2\n      swap1\n      tag_23\n      jump\t// in\n    tag_24:\n        /* \"functions.sol\":312:335  uint result = a + b + c */\n      swap1\n      pop\n        /* \"functions.sol\":345:351  result */\n      dup1\n        /* \"functions.sol\":338:351  return result */\n      swap4\n      pop\n      pop\n      pop\n      pop\n        /* \"functions.sol\":235:357  function addValues() public view returns(uint){\r... */\n      swap1\n      jump\t// out\n        /* \"functions.sol\":163:231  function remoteControlOpen(bool closedDoor) public returns(bool){\r... */\n    tag_13:\n        /* \"functions.sol\":222:226  bool */\n      0x00\n        /* \"functions.sol\":163:231  function remoteControlOpen(bool closedDoor) public returns(bool){\r... */\n      swap2\n      swap1\n      pop\n      jump\t// out\n        /* \"functions.sol\":361:476  function multiplyCalculator(uint a, uint b) public view returns(uint){\r... */\n    tag_19:\n        /* \"functions.sol\":425:429  uint */\n      0x00\n        /* \"functions.sol\":435:446  uint result */\n      dup1\n        /* \"functions.sol\":453:454  b */\n      dup3\n        /* \"functions.sol\":449:450  a */\n      dup5\n        /* \"functions.sol\":449:454  a * b */\n      tag_27\n      swap2\n      swap1\n      tag_28\n      jump\t// in\n    tag_27:\n        /* \"functions.sol\":435:454  uint result = a * b */\n      swap1\n      pop\n        /* \"functions.sol\":464:470  result */\n      dup1\n        /* \"functions.sol\":457:470  return result */\n      swap2\n      pop\n      pop\n        /* \"functions.sol\":361:476  function multiplyCalculator(uint a, uint b) public view returns(uint){\r... */\n      swap3\n      swap2\n      pop\n      pop\n      jump\t// out\n        /* \"#utility.yul\":7:140   */\n    tag_30:\n        /* \"#utility.yul\":50:55   */\n      0x00\n        /* \"#utility.yul\":88:94   */\n      dup2\n        /* \"#utility.yul\":75:95   */\n      calldataload\n        /* \"#utility.yul\":66:95   */\n      swap1\n      pop\n        /* \"#utility.yul\":104:134   */\n      tag_32\n        /* \"#utility.yul\":128:133   */\n      dup2\n        /* \"#utility.yul\":104:134   */\n      tag_33\n      jump\t// in\n    tag_32:\n        /* \"#utility.yul\":7:140   */\n      swap3\n      swap2\n      pop\n      pop\n      jump\t// out\n        /* \"#utility.yul\":146:285   */\n    tag_34:\n        /* \"#utility.yul\":192:197   */\n      0x00\n        /* \"#utility.yul\":230:236   */\n      dup2\n        /* \"#utility.yul\":217:237   */\n      calldataload\n        /* \"#utility.yul\":208:237   */\n      swap1\n      pop\n        /* \"#utility.yul\":246:279   */\n      tag_36\n        /* \"#utility.yul\":273:278   */\n      dup2\n        /* \"#utility.yul\":246:279   */\n      tag_37\n      jump\t// in\n    tag_36:\n        /* \"#utility.yul\":146:285   */\n      swap3\n      swap2\n      pop\n      pop\n      jump\t// out\n        /* \"#utility.yul\":291:614   */\n    tag_12:\n        /* \"#utility.yul\":347:353   */\n      0x00\n        /* \"#utility.yul\":396:398   */\n      0x20\n        /* \"#utility.yul\":384:393   */\n      dup3\n        /* \"#utility.yul\":375:382   */\n      dup5\n        /* \"#utility.yul\":371:394   */\n      sub\n        /* \"#utility.yul\":367:399   */\n      slt\n        /* \"#utility.yul\":364:483   */\n      iszero\n      tag_39\n      jumpi\n        /* \"#utility.yul\":402:481   */\n      tag_40\n      tag_41\n      jump\t// in\n    tag_40:\n        /* \"#utility.yul\":364:483   */\n    tag_39:\n        /* \"#utility.yul\":522:523   */\n      0x00\n        /* \"#utility.yul\":547:597   */\n      tag_42\n        /* \"#utility.yul\":589:596   */\n      dup5\n        /* \"#utility.yul\":580:586   */\n      dup3\n        /* \"#utility.yul\":569:578   */\n      dup6\n        /* \"#utility.yul\":565:587   */\n      add\n        /* \"#utility.yul\":547:597   */\n      tag_30\n      jump\t// in\n    tag_42:\n        /* \"#utility.yul\":537:597   */\n      swap2\n      pop\n        /* \"#utility.yul\":493:607   */\n      pop\n        /* \"#utility.yul\":291:614   */\n      swap3\n      swap2\n      pop\n      pop\n      jump\t// out\n        /* \"#utility.yul\":620:1094   */\n    tag_18:\n        /* \"#utility.yul\":688:694   */\n      0x00\n        /* \"#utility.yul\":696:702   */\n      dup1\n        /* \"#utility.yul\":745:747   */\n      0x40\n        /* \"#utility.yul\":733:742   */\n      dup4\n        /* \"#utility.yul\":724:731   */\n      dup6\n        /* \"#utility.yul\":720:743   */\n      sub\n        /* \"#utility.yul\":716:748   */\n      slt\n        /* \"#utility.yul\":713:832   */\n      iszero\n      tag_44\n      jumpi\n        /* \"#utility.yul\":751:830   */\n      tag_45\n      tag_41\n      jump\t// in\n    tag_45:\n        /* \"#utility.yul\":713:832   */\n    tag_44:\n        /* \"#utility.yul\":871:872   */\n      0x00\n        /* \"#utility.yul\":896:949   */\n      tag_46\n        /* \"#utility.yul\":941:948   */\n      dup6\n        /* \"#utility.yul\":932:938   */\n      dup3\n        /* \"#utility.yul\":921:930   */\n      dup7\n        /* \"#utility.yul\":917:939   */\n      add\n        /* \"#utility.yul\":896:949   */\n      tag_34\n      jump\t// in\n    tag_46:\n        /* \"#utility.yul\":886:949   */\n      swap3\n      pop\n        /* \"#utility.yul\":842:959   */\n      pop\n        /* \"#utility.yul\":998:1000   */\n      0x20\n        /* \"#utility.yul\":1024:1077   */\n      tag_47\n        /* \"#utility.yul\":1069:1076   */\n      dup6\n        /* \"#utility.yul\":1060:1066   */\n      dup3\n        /* \"#utility.yul\":1049:1058   */\n      dup7\n        /* \"#utility.yul\":1045:1067   */\n      add\n        /* \"#utility.yul\":1024:1077   */\n      tag_34\n      jump\t// in\n    tag_47:\n        /* \"#utility.yul\":1014:1077   */\n      swap2\n      pop\n        /* \"#utility.yul\":969:1087   */\n      pop\n        /* \"#utility.yul\":620:1094   */\n      swap3\n      pop\n      swap3\n      swap1\n      pop\n      jump\t// out\n        /* \"#utility.yul\":1100:1209   */\n    tag_48:\n        /* \"#utility.yul\":1181:1202   */\n      tag_50\n        /* \"#utility.yul\":1196:1201   */\n      dup2\n        /* \"#utility.yul\":1181:1202   */\n      tag_51\n      jump\t// in\n    tag_50:\n        /* \"#utility.yul\":1176:1179   */\n      dup3\n        /* \"#utility.yul\":1169:1203   */\n      mstore\n        /* \"#utility.yul\":1100:1209   */\n      pop\n      pop\n      jump\t// out\n        /* \"#utility.yul\":1215:1333   */\n    tag_52:\n        /* \"#utility.yul\":1302:1326   */\n      tag_54\n        /* \"#utility.yul\":1320:1325   */\n      dup2\n        /* \"#utility.yul\":1302:1326   */\n      tag_55\n      jump\t// in\n    tag_54:\n        /* \"#utility.yul\":1297:1300   */\n      dup3\n        /* \"#utility.yul\":1290:1327   */\n      mstore\n        /* \"#utility.yul\":1215:1333   */\n      pop\n      pop\n      jump\t// out\n        /* \"#utility.yul\":1339:1549   */\n    tag_15:\n        /* \"#utility.yul\":1426:1430   */\n      0x00\n        /* \"#utility.yul\":1464:1466   */\n      0x20\n        /* \"#utility.yul\":1453:1462   */\n      dup3\n        /* \"#utility.yul\":1449:1467   */\n      add\n        /* \"#utility.yul\":1441:1467   */\n      swap1\n      pop\n        /* \"#utility.yul\":1477:1542   */\n      tag_57\n        /* \"#utility.yul\":1539:1540   */\n      0x00\n        /* \"#utility.yul\":1528:1537   */\n      dup4\n        /* \"#utility.yul\":1524:1541   */\n      add\n        /* \"#utility.yul\":1515:1521   */\n      dup5\n        /* \"#utility.yul\":1477:1542   */\n      tag_48\n      jump\t// in\n    tag_57:\n        /* \"#utility.yul\":1339:1549   */\n      swap3\n      swap2\n      pop\n      pop\n      jump\t// out\n        /* \"#utility.yul\":1555:1777   */\n    tag_9:\n        /* \"#utility.yul\":1648:1652   */\n      0x00\n        /* \"#utility.yul\":1686:1688   */\n      0x20\n        /* \"#utility.yul\":1675:1684   */\n      dup3\n        /* \"#utility.yul\":1671:1689   */\n      add\n        /* \"#utility.yul\":1663:1689   */\n      swap1\n      pop\n        /* \"#utility.yul\":1699:1770   */\n      tag_59\n        /* \"#utility.yul\":1767:1768   */\n      0x00\n        /* \"#utility.yul\":1756:1765   */\n      dup4\n        /* \"#utility.yul\":1752:1769   */\n      add\n        /* \"#utility.yul\":1743:1749   */\n      dup5\n        /* \"#utility.yul\":1699:1770   */\n      tag_52\n      jump\t// in\n    tag_59:\n        /* \"#utility.yul\":1555:1777   */\n      swap3\n      swap2\n      pop\n      pop\n      jump\t// out\n        /* \"#utility.yul\":1864:2169   */\n    tag_23:\n        /* \"#utility.yul\":1904:1907   */\n      0x00\n        /* \"#utility.yul\":1923:1943   */\n      tag_63\n        /* \"#utility.yul\":1941:1942   */\n      dup3\n        /* \"#utility.yul\":1923:1943   */\n      tag_55\n      jump\t// in\n    tag_63:\n        /* \"#utility.yul\":1918:1943   */\n      swap2\n      pop\n        /* \"#utility.yul\":1957:1977   */\n      tag_64\n        /* \"#utility.yul\":1975:1976   */\n      dup4\n        /* \"#utility.yul\":1957:1977   */\n      tag_55\n      jump\t// in\n    tag_64:\n        /* \"#utility.yul\":1952:1977   */\n      swap3\n      pop\n        /* \"#utility.yul\":2111:2112   */\n      dup3\n        /* \"#utility.yul\":2043:2109   */\n      0xffffffffffffffffffffffffffffffffffffffffffffffffffffffffffffffff\n        /* \"#utility.yul\":2039:2113   */\n      sub\n        /* \"#utility.yul\":2036:2037   */\n      dup3\n        /* \"#utility.yul\":2033:2114   */\n      gt\n        /* \"#utility.yul\":2030:2137   */\n      iszero\n      tag_65\n      jumpi\n        /* \"#utility.yul\":2117:2135   */\n      tag_66\n      tag_67\n      jump\t// in\n    tag_66:\n        /* \"#utility.yul\":2030:2137   */\n    tag_65:\n        /* \"#utility.yul\":2161:2162   */\n      dup3\n        /* \"#utility.yul\":2158:2159   */\n      dup3\n        /* \"#utility.yul\":2154:2163   */\n      add\n        /* \"#utility.yul\":2147:2163   */\n      swap1\n      pop\n        /* \"#utility.yul\":1864:2169   */\n      swap3\n      swap2\n      pop\n      pop\n      jump\t// out\n        /* \"#utility.yul\":2175:2523   */\n    tag_28:\n        /* \"#utility.yul\":2215:2222   */\n      0x00\n        /* \"#utility.yul\":2238:2258   */\n      tag_69\n        /* \"#utility.yul\":2256:2257   */\n      dup3\n        /* \"#utility.yul\":2238:2258   */\n      tag_55\n      jump\t// in\n    tag_69:\n        /* \"#utility.yul\":2233:2258   */\n      swap2\n      pop\n        /* \"#utility.yul\":2272:2292   */\n      tag_70\n        /* \"#utility.yul\":2290:2291   */\n      dup4\n        /* \"#utility.yul\":2272:2292   */\n      tag_55\n      jump\t// in\n    tag_70:\n        /* \"#utility.yul\":2267:2292   */\n      swap3\n      pop\n        /* \"#utility.yul\":2460:2461   */\n      dup2\n        /* \"#utility.yul\":2392:2458   */\n      0xffffffffffffffffffffffffffffffffffffffffffffffffffffffffffffffff\n        /* \"#utility.yul\":2388:2462   */\n      div\n        /* \"#utility.yul\":2385:2386   */\n      dup4\n        /* \"#utility.yul\":2382:2463   */\n      gt\n        /* \"#utility.yul\":2377:2378   */\n      dup3\n        /* \"#utility.yul\":2370:2379   */\n      iszero\n        /* \"#utility.yul\":2363:2380   */\n      iszero\n        /* \"#utility.yul\":2359:2464   */\n      and\n        /* \"#utility.yul\":2356:2487   */\n      iszero\n      tag_71\n      jumpi\n        /* \"#utility.yul\":2467:2485   */\n      tag_72\n      tag_67\n      jump\t// in\n    tag_72:\n        /* \"#utility.yul\":2356:2487   */\n    tag_71:\n        /* \"#utility.yul\":2515:2516   */\n      dup3\n        /* \"#utility.yul\":2512:2513   */\n      dup3\n        /* \"#utility.yul\":2508:2517   */\n      mul\n        /* \"#utility.yul\":2497:2517   */\n      swap1\n      pop\n        /* \"#utility.yul\":2175:2523   */\n      swap3\n      swap2\n      pop\n      pop\n      jump\t// out\n        /* \"#utility.yul\":2529:2619   */\n    tag_51:\n        /* \"#utility.yul\":2563:2570   */\n      0x00\n        /* \"#utility.yul\":2606:2611   */\n      dup2\n        /* \"#utility.yul\":2599:2612   */\n      iszero\n        /* \"#utility.yul\":2592:2613   */\n      iszero\n        /* \"#utility.yul\":2581:2613   */\n      swap1\n      pop\n        /* \"#utility.yul\":2529:2619   */\n      swap2\n      swap1\n      pop\n      jump\t// out\n        /* \"#utility.yul\":2625:2702   */\n    tag_55:\n        /* \"#utility.yul\":2662:2669   */\n      0x00\n        /* \"#utility.yul\":2691:2696   */\n      dup2\n        /* \"#utility.yul\":2680:2696   */\n      swap1\n      pop\n        /* \"#utility.yul\":2625:2702   */\n      swap2\n      swap1\n      pop\n      jump\t// out\n        /* \"#utility.yul\":2708:2888   */\n    tag_67:\n        /* \"#utility.yul\":2756:2833   */\n      0x4e487b7100000000000000000000000000000000000000000000000000000000\n        /* \"#utility.yul\":2753:2754   */\n      0x00\n        /* \"#utility.yul\":2746:2834   */\n      mstore\n        /* \"#utility.yul\":2853:2857   */\n      0x11\n        /* \"#utility.yul\":2850:2851   */\n      0x04\n        /* \"#utility.yul\":2843:2858   */\n      mstore\n        /* \"#utility.yul\":2877:2881   */\n      0x24\n        /* \"#utility.yul\":2874:2875   */\n      0x00\n        /* \"#utility.yul\":2867:2882   */\n      revert\n        /* \"#utility.yul\":3017:3134   */\n    tag_41:\n        /* \"#utility.yul\":3126:3127   */\n      0x00\n        /* \"#utility.yul\":3123:3124   */\n      dup1\n        /* \"#utility.yul\":3116:3128   */\n      revert\n        /* \"#utility.yul\":3140:3256   */\n    tag_33:\n        /* \"#utility.yul\":3210:3231   */\n      tag_80\n        /* \"#utility.yul\":3225:3230   */\n      dup2\n        /* \"#utility.yul\":3210:3231   */\n      tag_51\n      jump\t// in\n    tag_80:\n        /* \"#utility.yul\":3203:3208   */\n      dup2\n        /* \"#utility.yul\":3200:3232   */\n      eq\n        /* \"#utility.yul\":3190:3250   */\n      tag_81\n      jumpi\n        /* \"#utility.yul\":3246:3247   */\n      0x00\n        /* \"#utility.yul\":3243:3244   */\n      dup1\n        /* \"#utility.yul\":3236:3248   */\n      revert\n        /* \"#utility.yul\":3190:3250   */\n    tag_81:\n        /* \"#utility.yul\":3140:3256   */\n      pop\n      jump\t// out\n        /* \"#utility.yul\":3262:3384   */\n    tag_37:\n        /* \"#utility.yul\":3335:3359   */\n      tag_83\n        /* \"#utility.yul\":3353:3358   */\n      dup2\n        /* \"#utility.yul\":3335:3359   */\n      tag_55\n      jump\t// in\n    tag_83:\n        /* \"#utility.yul\":3328:3333   */\n      dup2\n        /* \"#utility.yul\":3325:3360   */\n      eq\n        /* \"#utility.yul\":3315:3378   */\n      tag_84\n      jumpi\n        /* \"#utility.yul\":3374:3375   */\n      0x00\n        /* \"#utility.yul\":3371:3372   */\n      dup1\n        /* \"#utility.yul\":3364:3376   */\n      revert\n        /* \"#utility.yul\":3315:3378   */\n    tag_84:\n        /* \"#utility.yul\":3262:3384   */\n      pop\n      jump\t// out\n\n    auxdata: 0xa2646970667358221220b636cbb3a537a9b8868553d8b37f8f339ad11edf3e200ae7e6c8e14e5fb5a7a364736f6c63430008070033\n}\n",
				"bytecode": {
					"linkReferences": {},
					"object": "6080604052600360005534801561001557600080fd5b50610361806100256000396000f3fe608060405234801561001057600080fd5b50600436106100415760003560e01c8063166e7bdd14610046578063273d1a3e14610064578063de1126f614610094575b600080fd5b61004e6100c4565b60405161005b91906101e8565b60405180910390f35b61007e60048036038101906100799190610142565b6100f6565b60405161008b91906101cd565b60405180910390f35b6100ae60048036038101906100a9919061016f565b6100fd565b6040516100bb91906101e8565b60405180910390f35b600080600290506000600390506000805482846100e19190610203565b6100eb9190610203565b905080935050505090565b6000919050565b600080828461010c9190610259565b90508091505092915050565b600081359050610127816102fd565b92915050565b60008135905061013c81610314565b92915050565b600060208284031215610158576101576102f8565b5b600061016684828501610118565b91505092915050565b60008060408385031215610186576101856102f8565b5b60006101948582860161012d565b92505060206101a58582860161012d565b9150509250929050565b6101b8816102b3565b82525050565b6101c7816102bf565b82525050565b60006020820190506101e260008301846101af565b92915050565b60006020820190506101fd60008301846101be565b92915050565b600061020e826102bf565b9150610219836102bf565b9250827fffffffffffffffffffffffffffffffffffffffffffffffffffffffffffffffff0382111561024e5761024d6102c9565b5b828201905092915050565b6000610264826102bf565b915061026f836102bf565b9250817fffffffffffffffffffffffffffffffffffffffffffffffffffffffffffffffff04831182151516156102a8576102a76102c9565b5b828202905092915050565b60008115159050919050565b6000819050919050565b7f4e487b7100000000000000000000000000000000000000000000000000000000600052601160045260246000fd5b600080fd5b610306816102b3565b811461031157600080fd5b50565b61031d816102bf565b811461032857600080fd5b5056fea2646970667358221220b636cbb3a537a9b8868553d8b37f8f339ad11edf3e200ae7e6c8e14e5fb5a7a364736f6c63430008070033",
					"opcodes": "PUSH1 0x80 PUSH1 0x40 MSTORE PUSH1 0x3 PUSH1 0x0 SSTORE CALLVALUE DUP1 ISZERO PUSH2 0x15 JUMPI PUSH1 0x0 DUP1 REVERT JUMPDEST POP PUSH2 0x361 DUP1 PUSH2 0x25 PUSH1 0x0 CODECOPY PUSH1 0x0 RETURN INVALID PUSH1 0x80 PUSH1 0x40 MSTORE CALLVALUE DUP1 ISZERO PUSH2 0x10 JUMPI PUSH1 0x0 DUP1 REVERT JUMPDEST POP PUSH1 0x4 CALLDATASIZE LT PUSH2 0x41 JUMPI PUSH1 0x0 CALLDATALOAD PUSH1 0xE0 SHR DUP1 PUSH4 0x166E7BDD EQ PUSH2 0x46 JUMPI DUP1 PUSH4 0x273D1A3E EQ PUSH2 0x64 JUMPI DUP1 PUSH4 0xDE1126F6 EQ PUSH2 0x94 JUMPI JUMPDEST PUSH1 0x0 DUP1 REVERT JUMPDEST PUSH2 0x4E PUSH2 0xC4 JUMP JUMPDEST PUSH1 0x40 MLOAD PUSH2 0x5B SWAP2 SWAP1 PUSH2 0x1E8 JUMP JUMPDEST PUSH1 0x40 MLOAD DUP1 SWAP2 SUB SWAP1 RETURN JUMPDEST PUSH2 0x7E PUSH1 0x4 DUP1 CALLDATASIZE SUB DUP2 ADD SWAP1 PUSH2 0x79 SWAP2 SWAP1 PUSH2 0x142 JUMP JUMPDEST PUSH2 0xF6 JUMP JUMPDEST PUSH1 0x40 MLOAD PUSH2 0x8B SWAP2 SWAP1 PUSH2 0x1CD JUMP JUMPDEST PUSH1 0x40 MLOAD DUP1 SWAP2 SUB SWAP1 RETURN JUMPDEST PUSH2 0xAE PUSH1 0x4 DUP1 CALLDATASIZE SUB DUP2 ADD SWAP1 PUSH2 0xA9 SWAP2 SWAP1 PUSH2 0x16F JUMP JUMPDEST PUSH2 0xFD JUMP JUMPDEST PUSH1 0x40 MLOAD PUSH2 0xBB SWAP2 SWAP1 PUSH2 0x1E8 JUMP JUMPDEST PUSH1 0x40 MLOAD DUP1 SWAP2 SUB SWAP1 RETURN JUMPDEST PUSH1 0x0 DUP1 PUSH1 0x2 SWAP1 POP PUSH1 0x0 PUSH1 0x3 SWAP1 POP PUSH1 0x0 DUP1 SLOAD DUP3 DUP5 PUSH2 0xE1 SWAP2 SWAP1 PUSH2 0x203 JUMP JUMPDEST PUSH2 0xEB SWAP2 SWAP1 PUSH2 0x203 JUMP JUMPDEST SWAP1 POP DUP1 SWAP4 POP POP POP POP SWAP1 JUMP JUMPDEST PUSH1 0x0 SWAP2 SWAP1 POP JUMP JUMPDEST PUSH1 0x0 DUP1 DUP3 DUP5 PUSH2 0x10C SWAP2 SWAP1 PUSH2 0x259 JUMP JUMPDEST SWAP1 POP DUP1 SWAP2 POP POP SWAP3 SWAP2 POP POP JUMP JUMPDEST PUSH1 0x0 DUP2 CALLDATALOAD SWAP1 POP PUSH2 0x127 DUP2 PUSH2 0x2FD JUMP JUMPDEST SWAP3 SWAP2 POP POP JUMP JUMPDEST PUSH1 0x0 DUP2 CALLDATALOAD SWAP1 POP PUSH2 0x13C DUP2 PUSH2 0x314 JUMP JUMPDEST SWAP3 SWAP2 POP POP JUMP JUMPDEST PUSH1 0x0 PUSH1 0x20 DUP3 DUP5 SUB SLT ISZERO PUSH2 0x158 JUMPI PUSH2 0x157 PUSH2 0x2F8 JUMP JUMPDEST JUMPDEST PUSH1 0x0 PUSH2 0x166 DUP5 DUP3 DUP6 ADD PUSH2 0x118 JUMP JUMPDEST SWAP2 POP POP SWAP3 SWAP2 POP POP JUMP JUMPDEST PUSH1 0x0 DUP1 PUSH1 0x40 DUP4 DUP6 SUB SLT ISZERO PUSH2 0x186 JUMPI PUSH2 0x185 PUSH2 0x2F8 JUMP JUMPDEST JUMPDEST PUSH1 0x0 PUSH2 0x194 DUP6 DUP3 DUP7 ADD PUSH2 0x12D JUMP JUMPDEST SWAP3 POP POP PUSH1 0x20 PUSH2 0x1A5 DUP6 DUP3 DUP7 ADD PUSH2 0x12D JUMP JUMPDEST SWAP2 POP POP SWAP3 POP SWAP3 SWAP1 POP JUMP JUMPDEST PUSH2 0x1B8 DUP2 PUSH2 0x2B3 JUMP JUMPDEST DUP3 MSTORE POP POP JUMP JUMPDEST PUSH2 0x1C7 DUP2 PUSH2 0x2BF JUMP JUMPDEST DUP3 MSTORE POP POP JUMP JUMPDEST PUSH1 0x0 PUSH1 0x20 DUP3 ADD SWAP1 POP PUSH2 0x1E2 PUSH1 0x0 DUP4 ADD DUP5 PUSH2 0x1AF JUMP JUMPDEST SWAP3 SWAP2 POP POP JUMP JUMPDEST PUSH1 0x0 PUSH1 0x20 DUP3 ADD SWAP1 POP PUSH2 0x1FD PUSH1 0x0 DUP4 ADD DUP5 PUSH2 0x1BE JUMP JUMPDEST SWAP3 SWAP2 POP POP JUMP JUMPDEST PUSH1 0x0 PUSH2 0x20E DUP3 PUSH2 0x2BF JUMP JUMPDEST SWAP2 POP PUSH2 0x219 DUP4 PUSH2 0x2BF JUMP JUMPDEST SWAP3 POP DUP3 PUSH32 0xFFFFFFFFFFFFFFFFFFFFFFFFFFFFFFFFFFFFFFFFFFFFFFFFFFFFFFFFFFFFFFFF SUB DUP3 GT ISZERO PUSH2 0x24E JUMPI PUSH2 0x24D PUSH2 0x2C9 JUMP JUMPDEST JUMPDEST DUP3 DUP3 ADD SWAP1 POP SWAP3 SWAP2 POP POP JUMP JUMPDEST PUSH1 0x0 PUSH2 0x264 DUP3 PUSH2 0x2BF JUMP JUMPDEST SWAP2 POP PUSH2 0x26F DUP4 PUSH2 0x2BF JUMP JUMPDEST SWAP3 POP DUP2 PUSH32 0xFFFFFFFFFFFFFFFFFFFFFFFFFFFFFFFFFFFFFFFFFFFFFFFFFFFFFFFFFFFFFFFF DIV DUP4 GT DUP3 ISZERO ISZERO AND ISZERO PUSH2 0x2A8 JUMPI PUSH2 0x2A7 PUSH2 0x2C9 JUMP JUMPDEST JUMPDEST DUP3 DUP3 MUL SWAP1 POP SWAP3 SWAP2 POP POP JUMP JUMPDEST PUSH1 0x0 DUP2 ISZERO ISZERO SWAP1 POP SWAP2 SWAP1 POP JUMP JUMPDEST PUSH1 0x0 DUP2 SWAP1 POP SWAP2 SWAP1 POP JUMP JUMPDEST PUSH32 0x4E487B7100000000000000000000000000000000000000000000000000000000 PUSH1 0x0 MSTORE PUSH1 0x11 PUSH1 0x4 MSTORE PUSH1 0x24 PUSH1 0x0 REVERT JUMPDEST PUSH1 0x0 DUP1 REVERT JUMPDEST PUSH2 0x306 DUP2 PUSH2 0x2B3 JUMP JUMPDEST DUP2 EQ PUSH2 0x311 JUMPI PUSH1 0x0 DUP1 REVERT JUMPDEST POP JUMP JUMPDEST PUSH2 0x31D DUP2 PUSH2 0x2BF JUMP JUMPDEST DUP2 EQ PUSH2 0x328 JUMPI PUSH1 0x0 DUP1 REVERT JUMPDEST POP JUMP INVALID LOG2 PUSH5 0x6970667358 0x22 SLT KECCAK256 0xB6 CALLDATASIZE 0xCB 0xB3 0xA5 CALLDATACOPY 0xA9 0xB8 DUP7 DUP6 MSTORE8 0xD8 0xB3 PUSH32 0x8F339AD11EDF3E200AE7E6C8E14E5FB5A7A364736F6C63430008070033000000 "
				},
				"gasEstimates": {
					"creation": {
						"codeDepositCost": "173000",
						"executionCost": "22326",
						"totalCost": "195326"
					},
					"external": {
						"addValues()": "infinite",
						"multiplyCalculator(uint256,uint256)": "infinite",
						"remoteControlOpen(bool)": "infinite"
					}
				},
				"methodIdentifiers": {
					"addValues()": "166e7bdd",
					"multiplyCalculator(uint256,uint256)": "de1126f6",
					"remoteControlOpen(bool)": "273d1a3e"
				}
			},
			"storageLayout": {
				"storage": [
					{
						"astId": 4,
						"contract": "functions.sol:learnFunctions",
						"label": "c",
						"offset": 0,
						"slot": "0",
						"type": "t_uint256"
					}
				],
				"types": {
					"t_uint256": {
						"encoding": "inplace",
						"label": "uint256",
						"numberOfBytes": "32"
					}
				}
			},
			"userdoc": {
				"kind": "user",
				"methods": {},
				"version": 1
			}
		}
	}
}