{
	"decision-making.sol": {
		"DecisionMaking": {
			"abi": [
				{
					"inputs": [],
					"name": "airDrop",
					"outputs": [
						{
							"internalType": "uint256",
							"name": "",
							"type": "uint256"
						}
					],
					"stateMutability": "view",
					"type": "function"
				},
				{
					"inputs": [],
					"name": "validateOranges",
					"outputs": [
						{
							"internalType": "bool",
							"name": "",
							"type": "bool"
						}
					],
					"stateMutability": "view",
					"type": "function"
				}
			],
			"devdoc": {
				"kind": "dev",
				"methods": {},
				"version": 1
			},
			"evm": {
				"assembly": "    /* \"decision-making.sol\":597:2040  contract DecisionMaking {\r... */\n  mstore(0x40, 0x80)\n    /* \"decision-making.sol\":845:846  4 */\n  0x04\n    /* \"decision-making.sol\":830:846  uint oranges = 4 */\n  0x00\n  sstore\n    /* \"decision-making.sol\":1854:1855  1 */\n  0x01\n    /* \"decision-making.sol\":1833:1855  uint stakingWallet = 1 */\n  dup1\n  sstore\n    /* \"decision-making.sol\":597:2040  contract DecisionMaking {\r... */\n  callvalue\n  dup1\n  iszero\n  tag_1\n  jumpi\n  0x00\n  dup1\n  revert\ntag_1:\n  pop\n  dataSize(sub_0)\n  dup1\n  dataOffset(sub_0)\n  0x00\n  codecopy\n  0x00\n  return\nstop\n\nsub_0: assembly {\n        /* \"decision-making.sol\":597:2040  contract DecisionMaking {\r... */\n      mstore(0x40, 0x80)\n      callvalue\n      dup1\n      iszero\n      tag_1\n      jumpi\n      0x00\n      dup1\n      revert\n    tag_1:\n      pop\n      jumpi(tag_2, lt(calldatasize, 0x04))\n      shr(0xe0, calldataload(0x00))\n      dup1\n      0xb4a4fad8\n      eq\n      tag_3\n      jumpi\n      dup1\n      0xca5d0880\n      eq\n      tag_4\n      jumpi\n    tag_2:\n      0x00\n      dup1\n      revert\n        /* \"decision-making.sol\":935:1237  function validateOranges() public view returns (bool) {\r... */\n    tag_3:\n      tag_5\n      tag_6\n      jump\t// in\n    tag_5:\n      mload(0x40)\n      tag_7\n      swap2\n      swap1\n      tag_8\n      jump\t// in\n    tag_7:\n      mload(0x40)\n      dup1\n      swap2\n      sub\n      swap1\n      return\n        /* \"decision-making.sol\":1860:2035  function airDrop() public view returns(uint) {\r... */\n    tag_4:\n      tag_9\n      tag_10\n      jump\t// in\n    tag_9:\n      mload(0x40)\n      tag_11\n      swap2\n      swap1\n      tag_12\n      jump\t// in\n    tag_11:\n      mload(0x40)\n      dup1\n      swap2\n      sub\n      swap1\n      return\n        /* \"decision-making.sol\":935:1237  function validateOranges() public view returns (bool) {\r... */\n    tag_6:\n        /* \"decision-making.sol\":983:987  bool */\n      0x00\n        /* \"decision-making.sol\":1010:1011  5 */\n      0x05\n        /* \"decision-making.sol\":999:1006  oranges */\n      sload(0x00)\n        /* \"decision-making.sol\":999:1011  oranges == 5 */\n      eq\n        /* \"decision-making.sol\":996:1234  if(oranges == 5) // whatever goes in the paranthesese evaluates the trueness \r... */\n      iszero\n      tag_14\n      jumpi\n        /* \"decision-making.sol\":1185:1189  true */\n      0x01\n        /* \"decision-making.sol\":1178:1189  return true */\n      swap1\n      pop\n      jump(tag_13)\n        /* \"decision-making.sol\":996:1234  if(oranges == 5) // whatever goes in the paranthesese evaluates the trueness \r... */\n    tag_14:\n        /* \"decision-making.sol\":1222:1226  true */\n      0x01\n        /* \"decision-making.sol\":1215:1226  return true */\n      swap1\n      pop\n        /* \"decision-making.sol\":935:1237  function validateOranges() public view returns (bool) {\r... */\n    tag_13:\n      swap1\n      jump\t// out\n        /* \"decision-making.sol\":1860:2035  function airDrop() public view returns(uint) {\r... */\n    tag_10:\n        /* \"decision-making.sol\":1899:1903  uint */\n      0x00\n        /* \"decision-making.sol\":1934:1936  10 */\n      0x0a\n        /* \"decision-making.sol\":1917:1930  stakingWallet */\n      sload(0x01)\n        /* \"decision-making.sol\":1917:1936  stakingWallet <= 10 */\n      gt\n        /* \"decision-making.sol\":1914:2030  if(stakingWallet <= 10){\r... */\n      tag_17\n      jumpi\n        /* \"decision-making.sol\":1971:1973  10 */\n      0x0a\n        /* \"decision-making.sol\":1955:1968  stakingWallet */\n      sload(0x01)\n        /* \"decision-making.sol\":1955:1973  stakingWallet + 10 */\n      tag_18\n      swap2\n      swap1\n      tag_19\n      jump\t// in\n    tag_18:\n        /* \"decision-making.sol\":1948:1973  return stakingWallet + 10 */\n      swap1\n      pop\n      jump(tag_16)\n        /* \"decision-making.sol\":1914:2030  if(stakingWallet <= 10){\r... */\n    tag_17:\n        /* \"decision-making.sol\":2021:2022  1 */\n      0x01\n        /* \"decision-making.sol\":2005:2018  stakingWallet */\n      dup1\n      sload\n        /* \"decision-making.sol\":2005:2022  stakingWallet + 1 */\n      tag_21\n      swap2\n      swap1\n      tag_19\n      jump\t// in\n    tag_21:\n        /* \"decision-making.sol\":1998:2022  return stakingWallet + 1 */\n      swap1\n      pop\n        /* \"decision-making.sol\":1860:2035  function airDrop() public view returns(uint) {\r... */\n    tag_16:\n      swap1\n      jump\t// out\n        /* \"#utility.yul\":7:116   */\n    tag_23:\n        /* \"#utility.yul\":88:109   */\n      tag_25\n        /* \"#utility.yul\":103:108   */\n      dup2\n        /* \"#utility.yul\":88:109   */\n      tag_26\n      jump\t// in\n    tag_25:\n        /* \"#utility.yul\":83:86   */\n      dup3\n        /* \"#utility.yul\":76:110   */\n      mstore\n        /* \"#utility.yul\":7:116   */\n      pop\n      pop\n      jump\t// out\n        /* \"#utility.yul\":122:240   */\n    tag_27:\n        /* \"#utility.yul\":209:233   */\n      tag_29\n        /* \"#utility.yul\":227:232   */\n      dup2\n        /* \"#utility.yul\":209:233   */\n      tag_30\n      jump\t// in\n    tag_29:\n        /* \"#utility.yul\":204:207   */\n      dup3\n        /* \"#utility.yul\":197:234   */\n      mstore\n        /* \"#utility.yul\":122:240   */\n      pop\n      pop\n      jump\t// out\n        /* \"#utility.yul\":246:456   */\n    tag_8:\n        /* \"#utility.yul\":333:337   */\n      0x00\n        /* \"#utility.yul\":371:373   */\n      0x20\n        /* \"#utility.yul\":360:369   */\n      dup3\n        /* \"#utility.yul\":356:374   */\n      add\n        /* \"#utility.yul\":348:374   */\n      swap1\n      pop\n        /* \"#utility.yul\":384:449   */\n      tag_32\n        /* \"#utility.yul\":446:447   */\n      0x00\n        /* \"#utility.yul\":435:444   */\n      dup4\n        /* \"#utility.yul\":431:448   */\n      add\n        /* \"#utility.yul\":422:428   */\n      dup5\n        /* \"#utility.yul\":384:449   */\n      tag_23\n      jump\t// in\n    tag_32:\n        /* \"#utility.yul\":246:456   */\n      swap3\n      swap2\n      pop\n      pop\n      jump\t// out\n        /* \"#utility.yul\":462:684   */\n    tag_12:\n        /* \"#utility.yul\":555:559   */\n      0x00\n        /* \"#utility.yul\":593:595   */\n      0x20\n        /* \"#utility.yul\":582:591   */\n      dup3\n        /* \"#utility.yul\":578:596   */\n      add\n        /* \"#utility.yul\":570:596   */\n      swap1\n      pop\n        /* \"#utility.yul\":606:677   */\n      tag_34\n        /* \"#utility.yul\":674:675   */\n      0x00\n        /* \"#utility.yul\":663:672   */\n      dup4\n        /* \"#utility.yul\":659:676   */\n      add\n        /* \"#utility.yul\":650:656   */\n      dup5\n        /* \"#utility.yul\":606:677   */\n      tag_27\n      jump\t// in\n    tag_34:\n        /* \"#utility.yul\":462:684   */\n      swap3\n      swap2\n      pop\n      pop\n      jump\t// out\n        /* \"#utility.yul\":690:995   */\n    tag_19:\n        /* \"#utility.yul\":730:733   */\n      0x00\n        /* \"#utility.yul\":749:769   */\n      tag_36\n        /* \"#utility.yul\":767:768   */\n      dup3\n        /* \"#utility.yul\":749:769   */\n      tag_30\n      jump\t// in\n    tag_36:\n        /* \"#utility.yul\":744:769   */\n      swap2\n      pop\n        /* \"#utility.yul\":783:803   */\n      tag_37\n        /* \"#utility.yul\":801:802   */\n      dup4\n        /* \"#utility.yul\":783:803   */\n      tag_30\n      jump\t// in\n    tag_37:\n        /* \"#utility.yul\":778:803   */\n      swap3\n      pop\n        /* \"#utility.yul\":937:938   */\n      dup3\n        /* \"#utility.yul\":869:935   */\n      0xffffffffffffffffffffffffffffffffffffffffffffffffffffffffffffffff\n        /* \"#utility.yul\":865:939   */\n      sub\n        /* \"#utility.yul\":862:863   */\n      dup3\n        /* \"#utility.yul\":859:940   */\n      gt\n        /* \"#utility.yul\":856:963   */\n      iszero\n      tag_38\n      jumpi\n        /* \"#utility.yul\":943:961   */\n      tag_39\n      tag_40\n      jump\t// in\n    tag_39:\n        /* \"#utility.yul\":856:963   */\n    tag_38:\n        /* \"#utility.yul\":987:988   */\n      dup3\n        /* \"#utility.yul\":984:985   */\n      dup3\n        /* \"#utility.yul\":980:989   */\n      add\n        /* \"#utility.yul\":973:989   */\n      swap1\n      pop\n        /* \"#utility.yul\":690:995   */\n      swap3\n      swap2\n      pop\n      pop\n      jump\t// out\n        /* \"#utility.yul\":1001:1091   */\n    tag_26:\n        /* \"#utility.yul\":1035:1042   */\n      0x00\n        /* \"#utility.yul\":1078:1083   */\n      dup2\n        /* \"#utility.yul\":1071:1084   */\n      iszero\n        /* \"#utility.yul\":1064:1085   */\n      iszero\n        /* \"#utility.yul\":1053:1085   */\n      swap1\n      pop\n        /* \"#utility.yul\":1001:1091   */\n      swap2\n      swap1\n      pop\n      jump\t// out\n        /* \"#utility.yul\":1097:1174   */\n    tag_30:\n        /* \"#utility.yul\":1134:1141   */\n      0x00\n        /* \"#utility.yul\":1163:1168   */\n      dup2\n        /* \"#utility.yul\":1152:1168   */\n      swap1\n      pop\n        /* \"#utility.yul\":1097:1174   */\n      swap2\n      swap1\n      pop\n      jump\t// out\n        /* \"#utility.yul\":1180:1360   */\n    tag_40:\n        /* \"#utility.yul\":1228:1305   */\n      0x4e487b7100000000000000000000000000000000000000000000000000000000\n        /* \"#utility.yul\":1225:1226   */\n      0x00\n        /* \"#utility.yul\":1218:1306   */\n      mstore\n        /* \"#utility.yul\":1325:1329   */\n      0x11\n        /* \"#utility.yul\":1322:1323   */\n      0x04\n        /* \"#utility.yul\":1315:1330   */\n      mstore\n        /* \"#utility.yul\":1349:1353   */\n      0x24\n        /* \"#utility.yul\":1346:1347   */\n      0x00\n        /* \"#utility.yul\":1339:1354   */\n      revert\n\n    auxdata: 0xa26469706673582212202ac18884366a4dbf19ebfe13ade57badb5601f0c9dc7d10d73a49b7d019b55b664736f6c63430008070033\n}\n",
				"bytecode": {
					"linkReferences": {},
					"object": "608060405260046000556001805534801561001957600080fd5b506101f0806100296000396000f3fe608060405234801561001057600080fd5b50600436106100365760003560e01c8063b4a4fad81461003b578063ca5d088014610059575b600080fd5b610043610077565b60405161005091906100e9565b60405180910390f35b610061610095565b60405161006e9190610104565b60405180910390f35b60006005600054141561008d5760019050610092565b600190505b90565b6000600a600154116100b757600a6001546100b0919061011f565b90506100c8565b600180546100c5919061011f565b90505b90565b6100d481610175565b82525050565b6100e381610181565b82525050565b60006020820190506100fe60008301846100cb565b92915050565b600060208201905061011960008301846100da565b92915050565b600061012a82610181565b915061013583610181565b9250827fffffffffffffffffffffffffffffffffffffffffffffffffffffffffffffffff0382111561016a5761016961018b565b5b828201905092915050565b60008115159050919050565b6000819050919050565b7f4e487b7100000000000000000000000000000000000000000000000000000000600052601160045260246000fdfea26469706673582212202ac18884366a4dbf19ebfe13ade57badb5601f0c9dc7d10d73a49b7d019b55b664736f6c63430008070033",
					"opcodes": "PUSH1 0x80 PUSH1 0x40 MSTORE PUSH1 0x4 PUSH1 0x0 SSTORE PUSH1 0x1 DUP1 SSTORE CALLVALUE DUP1 ISZERO PUSH2 0x19 JUMPI PUSH1 0x0 DUP1 REVERT JUMPDEST POP PUSH2 0x1F0 DUP1 PUSH2 0x29 PUSH1 0x0 CODECOPY PUSH1 0x0 RETURN INVALID PUSH1 0x80 PUSH1 0x40 MSTORE CALLVALUE DUP1 ISZERO PUSH2 0x10 JUMPI PUSH1 0x0 DUP1 REVERT JUMPDEST POP PUSH1 0x4 CALLDATASIZE LT PUSH2 0x36 JUMPI PUSH1 0x0 CALLDATALOAD PUSH1 0xE0 SHR DUP1 PUSH4 0xB4A4FAD8 EQ PUSH2 0x3B JUMPI DUP1 PUSH4 0xCA5D0880 EQ PUSH2 0x59 JUMPI JUMPDEST PUSH1 0x0 DUP1 REVERT JUMPDEST PUSH2 0x43 PUSH2 0x77 JUMP JUMPDEST PUSH1 0x40 MLOAD PUSH2 0x50 SWAP2 SWAP1 PUSH2 0xE9 JUMP JUMPDEST PUSH1 0x40 MLOAD DUP1 SWAP2 SUB SWAP1 RETURN JUMPDEST PUSH2 0x61 PUSH2 0x95 JUMP JUMPDEST PUSH1 0x40 MLOAD PUSH2 0x6E SWAP2 SWAP1 PUSH2 0x104 JUMP JUMPDEST PUSH1 0x40 MLOAD DUP1 SWAP2 SUB SWAP1 RETURN JUMPDEST PUSH1 0x0 PUSH1 0x5 PUSH1 0x0 SLOAD EQ ISZERO PUSH2 0x8D JUMPI PUSH1 0x1 SWAP1 POP PUSH2 0x92 JUMP JUMPDEST PUSH1 0x1 SWAP1 POP JUMPDEST SWAP1 JUMP JUMPDEST PUSH1 0x0 PUSH1 0xA PUSH1 0x1 SLOAD GT PUSH2 0xB7 JUMPI PUSH1 0xA PUSH1 0x1 SLOAD PUSH2 0xB0 SWAP2 SWAP1 PUSH2 0x11F JUMP JUMPDEST SWAP1 POP PUSH2 0xC8 JUMP JUMPDEST PUSH1 0x1 DUP1 SLOAD PUSH2 0xC5 SWAP2 SWAP1 PUSH2 0x11F JUMP JUMPDEST SWAP1 POP JUMPDEST SWAP1 JUMP JUMPDEST PUSH2 0xD4 DUP2 PUSH2 0x175 JUMP JUMPDEST DUP3 MSTORE POP POP JUMP JUMPDEST PUSH2 0xE3 DUP2 PUSH2 0x181 JUMP JUMPDEST DUP3 MSTORE POP POP JUMP JUMPDEST PUSH1 0x0 PUSH1 0x20 DUP3 ADD SWAP1 POP PUSH2 0xFE PUSH1 0x0 DUP4 ADD DUP5 PUSH2 0xCB JUMP JUMPDEST SWAP3 SWAP2 POP POP JUMP JUMPDEST PUSH1 0x0 PUSH1 0x20 DUP3 ADD SWAP1 POP PUSH2 0x119 PUSH1 0x0 DUP4 ADD DUP5 PUSH2 0xDA JUMP JUMPDEST SWAP3 SWAP2 POP POP JUMP JUMPDEST PUSH1 0x0 PUSH2 0x12A DUP3 PUSH2 0x181 JUMP JUMPDEST SWAP2 POP PUSH2 0x135 DUP4 PUSH2 0x181 JUMP JUMPDEST SWAP3 POP DUP3 PUSH32 0xFFFFFFFFFFFFFFFFFFFFFFFFFFFFFFFFFFFFFFFFFFFFFFFFFFFFFFFFFFFFFFFF SUB DUP3 GT ISZERO PUSH2 0x16A JUMPI PUSH2 0x169 PUSH2 0x18B JUMP JUMPDEST JUMPDEST DUP3 DUP3 ADD SWAP1 POP SWAP3 SWAP2 POP POP JUMP JUMPDEST PUSH1 0x0 DUP2 ISZERO ISZERO SWAP1 POP SWAP2 SWAP1 POP JUMP JUMPDEST PUSH1 0x0 DUP2 SWAP1 POP SWAP2 SWAP1 POP JUMP JUMPDEST PUSH32 0x4E487B7100000000000000000000000000000000000000000000000000000000 PUSH1 0x0 MSTORE PUSH1 0x11 PUSH1 0x4 MSTORE PUSH1 0x24 PUSH1 0x0 REVERT INVALID LOG2 PUSH5 0x6970667358 0x22 SLT KECCAK256 0x2A 0xC1 DUP9 DUP5 CALLDATASIZE PUSH11 0x4DBF19EBFE13ADE57BADB5 PUSH1 0x1F 0xC SWAP14 0xC7 0xD1 0xD PUSH20 0xA49B7D019B55B664736F6C634300080700330000 "
				},
				"gasEstimates": {
					"creation": {
						"codeDepositCost": "99200",
						"executionCost": "44359",
						"totalCost": "143559"
					},
					"external": {
						"airDrop()": "infinite",
						"validateOranges()": "2458"
					}
				},
				"methodIdentifiers": {
					"airDrop()": "ca5d0880",
					"validateOranges()": "b4a4fad8"
				}
			},
			"storageLayout": {
				"storage": [
					{
						"astId": 4,
						"contract": "decision-making.sol:DecisionMaking",
						"label": "oranges",
						"offset": 0,
						"slot": "0",
						"type": "t_uint256"
					},
					{
						"astId": 23,
						"contract": "decision-making.sol:DecisionMaking",
						"label": "stakingWallet",
						"offset": 0,
						"slot": "1",
						"type": "t_uint256"
					}
				],
				"types": {
					"t_uint256": {
						"encoding": "inplace",
						"label": "uint256",
						"numberOfBytes": "32"
					}
				}
			},
			"userdoc": {
				"kind": "user",
				"methods": {},
				"version": 1
			}
		}
	}
}